:10044600202077656C636F6D65207573657220205B
:1004560000413A6F70656E2020423A6D6F6469669E
:100466007900496E7075742070617373776F72646A
:100476002020002020202020202020202020202096
:100486002020200020204D616368696E65206C6F16
:10049600636B2020002020206F6E65206D696E75CD
:1004A600746520202000507574204F6C64205061C4
:1004B6007373776F72642000202020202020202074
:1004C600202020202020202020002020202073759E
:1004D6006363657373202020200020202020206F76
:1004E60070656E2020202020200070617373776F66
:1004F60072642065727220202000202065727220AE
:10050600636E743A202020202000536574204E65C7
:10051600772050617373776F726420007061737314
:10052600776F7264206572722020202000202020C0
:1005360070757420616761696E20202020006368F1
:10054600616E67652050617373776F726420002057
:1005560020202053756363656564202020202000D9
:100566002054776F20646966666572656E74202014
:1005760000202020202072657475726E20202020B5
:02058600200053
:1009720007360000000000000007280202030405F9
:100982000600073F01020301020300100C207765F5
:100992006C636F6D6520757365722020000108001D
:1009A300C2A68F807F017E001209B4D2A77F057E85
:0109B3000043
:1009B400D3EF9400EE940040147D6E7C00ED1D7026
:0D09C400011CED4C70F7EF1F70E61E80E384
:0109D1002203
:0D0B5A007F067E00120B67D2A37F067E008F
:0B0B6700EF1FAC0670011E4C70F62260
:100BB300438901758CF8758A2FD28CD2A9D2AF22C2
:1006C1007533147590F0E59054F064F070030207EF
:1006D1006B1209B0E59054F064F0700302076EE507
:1006E100086401600302076EF508AF9075900FAEC4
:1006F10090EF4E12082607677707637B075F7D0738
:100701005B7E0757B70753BB074FBD074BBE074774
:10071100D70743DB073FDD073BDE0737E70733EB4F
:10072100072FED072BEE0000076E7533012275339D
:1007310002227533032275330A227533042275337D
:1007410005227533062275330B2275330722753363
:1007510008227533092275330C2275330D22E4F515
:0D076100332275330E2275330F2275080107
:01076E002268
:0A0BD100C2A7C2A51209A3C2A72201
:0A0BDB00C2A7D2A51209A3C2A722E7
:080A2D007A047957E4FD7F0211
:100A35008D46E546BF01042480800224C0FF120BC9
:100A4500D11207FBFF600C120BDB740129F9E43AA4
:040A5500FA80EE2213
:100A8300EDBF01042480800224C0FF120BD1EB755B
:100A9300F00A84AAF0EB75F00A842430FF120BDB12
:070AA300EA2430FF020BDB27
:040B7200E4FD7F011E
:100B7600BF010BED24C0FF120BD17F0F80027F0C4B
:040B8600120BD1225B
:1009D2007F38120BD17F0C120BD17F06120BD11272
:1009E20009B07F01120BD1E4F53E740C253EF8E606
:0E09F200FF120BEF053EE53EC3940E40ED22D2
:100B8A00120B61D2A4120B63C2A4120B63C2A37F1D
:060B9A00067E00020B675D
:100BA000C2A3120B63C2A4120B5AD2A47F067E000A
:030BB000020B67CE
:100B2700EF6004C2A48002D2A4120B5AC2A3120B14
:0A0B370063D2A47F067E00020B6764
:080AEF00120B8A7FA0120ACE4F
:100AF700D2A4120B5A30A408C2A3120BA07F012262
:050B0700C2A37F0022E3
:020ACE00AD0772
:100AD000E4FBED30E704D2A48002C2A4120B63D27F
:0E0AE000A3ED25E0FD120B63C2A30BBB08E4DF
:010AEE0022E5
:100B0C00E4FB120B61ED25E0FD30A403430501C2AB
:0A0B1C00A3120B630BBB08EAAF0540
:010B260022AC
:1008D000AA05A907120AEFEF60037F0122AF0112F8
:1008E0000ACE120AF7EF60037F0122AF02120ACE8E
:1008F000120AF7EF60037F0122120BA07F037E0034
:060900001209B47F002281
:10084C008F4C8B4D8A4E894F120AEFEF60037F015C
:10085C0022AF4C120ACE120AF7EF60037F0122126C
:10086C000B8A7FA1120ACE120AF7EF60037F0122D6
:10087C00120B0CAB4DAA4EA94FEF120814E4FF1249
:08088C000B27120BA07F0022D4
:0B0894007B007A00793F754B06E4FD05
:10089F008B478A4889498D4AAF4B154BEF601FAF85
:1008AF004A054AAB470549E549AA4870020548146D
:1008BF00F91207FBFD1208D0EF60DD7F01227F00E8
:0108CF002206
:100A00008B478A4889498D4AAF4B154BEF601BAF26
:100A10004A054AAB470549E549AA4870020548140A
:0D0A2000F912084CEF60E17F01227F0022F7
:100906007B007A007946754B017D0A120A00E5469E
:1009160064CA60147546CC7B007A007946754B0133
:100926007D0A12089F1208947B007A00793F754B66
:0609360006E4FD020A00C8
:10058800E50A70030206C0E4F50AE50B6002150BE4
:1005980020B2200532E532C394324017E4F532D256
:1005A800B275340A7BFF7A047946FD7F01120A3559
:1005B800120A2DE52F6058E530600DE50B7015F532
:1005C80030750B02D2A0800CE50B700875300175F0
:1005D8000B02C2A00532E532C394144032E4F5326E
:1005E800F52FF530F50BD2A0E531940340077527B8
:1005F80001E4F531227534147BFF7A047968E4FD4F
:100608007F01120A357A047979120A31120B72E5E0
:10061800276064E530600DE50B7015F530750B0546
:10062800D2A0800CE50B7008753001750B05C2A0CF
:100638007BFF7A04798AE4FD7F01120A357A04790E
:100648009B120A31E4FDFF120B76753428051FE56D
:100658001F7002051EC3942CE51E940140197534C1
:100668000AE4F51EF51FF527D2A07A047946FD7F26
:1006780001120A35120A2DE535603DE530600DE5B9
:100688000B7015F530750B05D2A0800CE50B7008C2
:10069800753001750B05C2A00509E509D39414400E
:1006A80017E4F535F50975340A7BFF7A047946FDB8
:0906B8007F01120A35120A2D22FD
:10000E00E53424EC70030200A024F6700302029B78
:10001E0014700302032324ED700302018E24286062
:10002E0003020445E53324F5602514603D24026087
:10003E00030204457BFF7A047968E4FD7F01120A0E
:10004E00357A047979120A31120B72753414227BC7
:10005E00FF7A0479ACE4FD7F01120A357A0479BE89
:10006E00120A31120B7275343222753F017540013E
:10007E007541017542017543017544011208947F63
:10008E002C7E011209B4C2A07FD07E071209B4D211
:10009E00A022E53324F6500A24FC603614604B028D
:1000AE0004457428253DF8A633053DD3E53D64800F
:1000BE0094864003753D06853D1CE4F53EE53EC342
:1000CE00951C500B7436253EF8762A053E80EE02BE
:1000DE00037E7428253DF87614153DC3E53D6480F6
:1000EE0094805003E4F53D020377E528653F703FA9
:1000FE00E52965407039E52A65417033E52B654287
:10010E00702DE52C65437027E52D65447021C2B234
:10011E007BFF7A0479D0FD7F01120A357A0479E0EB
:10012E00120A31AD3DE4FF120B767534288034058A
:10013E0031752F017BFF7A0479F0E4FD7F01120AFD
:10014E00357A057900120A31AB317D0A7F02120A27
:10015E0083AD3DE4FF120B76753428753001750BB7
:10016E0004C2A0E4F53E7436253EF8E4F674282564
:10017E003EF8E4F6F53DF51C053EE53EB406E722F5
:10018E00E53324F6500A24FC603614604B02044515
:10019E007428253DF8A633053DD3E53D648094864D
:1001AE004003753D06853D1CE4F53EE53EC3951CBA
:1001BE00500B7436253EF8762A053E80EE02037EFD
:1001CE007428253DF87614153DC3E53D6480948072
:1001DE005003E4F53D020377E528653F704BE529B2
:1001EE0065407045E52A6541703FE52B65427039E3
:1001FE00E52C65437033E52D6544702D7BFF7A0445
:10020E0079D0FD7F01120A357FF47E011209B47A8E
:10021E00057910E4FD7F01120A357A0479BE120ABF
:10022E0031120B7275341E8047E4FDFF120B767B84
:10023E00FF7A057922E4FD7F01120A357A04797975
:10024E00120A317FF47E011209B47FF47E01120985
:10025E00B47FF47E011209B47FF47E011209B47AE0
:10026E00047946E4FD7F01120A35120A2D75340A0F
:10027E00E4F53E7436253EF8E4F67428253EF8E49F
:10028E00F6F53DF51C053EE53EB406E722E53324C2
:10029E00F6500A24FC603614604B0204457428257F
:1002AE003DF8A633053DD3E53D6480948640037545
:1002BE003D06853D1CE4F53EE53EC3951C500B7492
:1002CE0036253EF8762A053E80EE02037E742825FA
:1002DE003DF87614153DC3E53D648094805003E4EB
:1002EE00F53D020377E4F53E7436253EF8E4F6F567
:1002FE003DF51C053EE53EB406EE7BFF7A057933EF
:10030E00E4FD7F01120A357A047979120A31120B53
:10031E007275341F22E53324F6500A24FC6035141E
:10032E00605E0204457420253DF8A633053DD3E5F5
:10033E003D648094864003753D06853D1CE4F53E84
:10034E00E53EC3951C500B7436253EF8762A053EC5
:10035E0080EE801C7420253DF87614153DC3E53DD6
:10036E00648094805003E4F53D7436253DF8762084
:10037E007B007A007936120A31AD3D7F01020B7691
:10038E00E52865207073E5296521706DE52A6522E3
:10039E007067E52B65237061E52C6524705BE52D98
:1003AE00652570557BFF7A057944FD7F01120A356C
:1003BE007A057955120A31E4F53E7420253EF8E6A9
:1003CE00FF743F253EF8A607053EE53EB406EB1248
:1003DE0008947F2C7E011209B4C2A07FD07E071232
:1003EE0009B4D2A075340A7BFF7A047946E4FD7F06
:1003FE0001120A35120A2D80227535017BFF7A050E
:10040E007966E4FD7F01120A357A057977120A3191
:10041E00753428753001750B05C2A0E4F53E7436AF
:10042E00253EF8E4F67428253EF8E4F6F53DF51C75
:08043E00053EE53EB406E7228D
:10093C007F647E001209B4120BB31209D21209069D
:10094C0075331475340AE4F51DF50AF532D2B2F597
:10095C003DF52FF531F51EF51FF50BF530F535F599
:06096C0009D2A0F52722CC
:0E0BC30012093C1206C112000E12058880F5C0
:03000B00020AAA3C
:100AAA00C0E0C0D0C28DC28C051DE51DD394324072
:100ABA0006751D00750A01D28C758CF8758A2FD0BF
:040ACA00D0D0E03276
:100A5900C2A58F807F017E00120A6AD2A77F057E18
:010A6900008C
:100A6A00D3EF9400EE9400400F7DC77C01DCFEDDDD
:080A7A00FAEF1F70EB1E80E88B
:010A82002251
:0A0BE500C2A7C2A6120A59C2A72235
:0A0BEF00C2A7D2A6120A59C2A7221B
:100B41007F38120BE57F0C120BE57F06120BE57F58
:090B510001120BE57F80020BE5A7
:0300000002076F85
:0C076F00787FE4F6D8FD75814F0207B6D4
:1007FB00BB010689828A83E0225002E722BBFE02FC
:09080B00E32289828A83E493222E
:10081400BB010689828A83F0225002F722BBFE01C3
:02082400F322BD
:10082600D083D082F8E4937012740193700DA3A361
:1008360093F8740193F5828883E473740293686075
:06084600EFA3A3A380DF75
:10077B00020BC3E493A3F8E493A34003F68001F2C6
:10078B0008DFF48029E493A3F85407240CC8C3337F
:10079B00C4540F4420C8834004F456800146F6DF4E
:1007AB00E4800B0102040810204080900972E47E63
:1007BB00019360BCA3FF543F30E509541FFEE49343
:1007CB00A360010ECF54C025E060A840B8E493A30A
:1007DB00FAE493A3F8E493A3C8C582C8CAC583CA35
:1007EB00F0A3C8C582C8CAC583CADFE9DEE780BEED
:0109A2000054
:00000001FF
