:1005A100202077656C636F6D6520757365722020FF
:1005B10000413A6F70656E2020423A6D6F64696642
:1005C1007900496E7075742070617373776F72640E
:1005D100202000202020202020202020202020203A
:1005E1002020200020204D616368696E65206C6FBA
:1005F100636B2020002020206F6E65206D696E7571
:10060100746520202000507574204F6C6420506167
:100611007373776F72642000202020202020202017
:100621002020202020202020200020202020737541
:100631006363657373202020200020202020206F19
:1006410070656E2020202020200070617373776F09
:100651007264206572722020200020206572722051
:10066100636E743A202020202000536574204E656B
:10067100772050617373776F7264200070617373B8
:10068100776F726420657272202020200020202064
:1006910070757420616761696E2020202000636895
:1006A100616E67652050617373776F7264200020FB
:1006B100202020537563636565642020202020007D
:1006C1002054776F20646966666572656E742020B8
:1006D10000202020202072657475726E2020202059
:0206E1002000F7
:100AAF0007260000000000000007180202030405DB
:0E0ABF000600072F01020301020300010800D8
:10099400C2A58F807F017E001209A5D2A77F057EA4
:0109A4000052
:1009A500D3EF9400EE940040147D6E7C00ED1D7035
:0D09B500011CED4C70F7EF1F70E61E80E393
:0109C2002212
:0D0B20007F067E00120B2DD2A37F067E0003
:0B0B2D00EF1FAC0670011E4C70F6229A
:100B7900438901758CF8758A2FD28CD2A9D2AF22FC
:1006E3007523147590F0E59054F064F070030207DD
:1006F3008D1209A1E59054F064F07003020790E5B0
:100703000864016003020790F508AF9075900FAE7F
:1007130090EF4E12084807897707857B07817D078D
:100723007D7E0779B70775BB0771BD076DBE076986
:10073300D70765DB0761DD075DDE0759E70755EB83
:100743000751ED074DEE0000079075230122752335
:1007530002227523032275230A227523042275239B
:1007630005227523062275230B2275230722752381
:1007730008227523092275230C2275230D22E4F523
:0D078300232275230E2275230F2275080115
:010790002246
:0A0B9700C2A7C2A6120994C2A72249
:0A0BA100C2A7D2A6120994C2A7222F
:0A09C3007BFF7A0579A1E4FD7F01B6
:1009CD008D36E536BF01042480800224C0FF120B52
:1009DD009712081DFF600C120BA1740129F9E43A5E
:0409ED00FA80EE227C
:100A1E00EDBF01042480800224C0FF120B97EB75FA
:100A2E00F00A84AAF0EB75F00A842430FF120BA1B1
:070A3E00EA2430FF020BA1C6
:040B3800E4FD7F0158
:100B3C00BF010BED24C0FF120B977F0F80027F0CBF
:040B4C00120B9722CF
:100A45007F38120B977F0C120B977F06120B9712AC
:100A550009A17F01120B971209C37A0579B2E4FD4A
:050A65007F020209CD33
:100B5000120B27D2A4120B29C2A4120B29C2A37F05
:060B6000067E00020B2DD1
:100B6600C2A3120B29C2A4120B20D2A47F067E00B8
:030B7600020B2D42
:100B0600EF6004C2A48002D2A4120B20C2A3120B6F
:0A0B160029D2A47F067E00020B2DF9
:080ACE00120B507FA0120A8EEA
:100AD600D2A4120B2030A408C2A3120B667F0122F7
:050AE600C2A37F002205
:020A8E00AD07B2
:100A9000E4FBED30E704D2A48002C2A4120B29D2F9
:0E0AA000A3ED25E0FD120B29C2A30BBB08E459
:010AAE002225
:100AEB00E4FB120B27ED25E0FD30A403430501C207
:0A0AFB00A3120B290BBB08EAAF059C
:010B050022CD
:1008F200AA05A907120ACEEF60037F0122AF0112F7
:100902000A8E120AD6EF60037F0122AF02120A8E0C
:10091200120AD6EF60037F0122120B667F037E006C
:060922001209A57F00226E
:10086E008F3C8B3D8A3E893F120ACEEF60037F019B
:10087E0022AF3C120A8E120AD6EF60037F012212BB
:10088E000B507FA1120A8E120AD6EF60037F01224F
:10089E00120AEBAB3DAA3EA93FEF120836E4FF1257
:0808AE000B06120B667F00220D
:0B08B6007B007A00792F753B06E4FD03
:1008C1008B378A3889398D3AAF3B153BEF601FAFC3
:1008D1003A053AAB370539E539AA387002053814BB
:1008E100F912081DFD1208F2EF60DD7F01227F0081
:0108F10022E4
:1009F1008B378A3889398D3AAF3B153BEF601BAF96
:100A01003A053AAB370539E539AA38700205381489
:0D0A1100F912086EEF60E17F01227F0022E4
:100928007B007A007936753B017D0A1209F1E536BC
:1009380064CA60147536CC7B007A007936753B0141
:100948007D0A1208C11208B67B007A00792F753B20
:0609580006E4FD0209F1B6
:10045000E50A70030205A0E4F50AE50B6002150B3E
:1004600020B2280522E522C39432401FE4F522D2AF
:10047000B275240A7BFF7A0579A1FD7F011209CDAF
:100480007A0579B2E4FD7F021209CDE51F6058E5D7
:1004900020600DE50B7015F520750B02D2A0800CC5
:1004A000E50B7008752001750B02C2A00522E5223C
:1004B000C394144032E4F522F51FF520F50BD2A0C9
:1004C000E52194034007751701E4F52122752414F2
:1004D0007BFF7A0579C31209C97A0579D4E4FD7FD7
:1004E000021209CD120B38E517606CE520600DE5AE
:1004F0000B7015F520750B05D2A0800CE50B70086C
:10050000752001750B05C2A07BFF7A0579E51209FC
:10051000C97A0579F6E4FD7F021209CDE4FDFF12E8
:100520000B3C752428050FE50F7002050EC3942CB3
:10053000E50E9401402175240AE4F50EF50FF51738
:10054000D2A07A0579A1FD7F011209CD7A0579B291
:10055000E4FD7F021209CDE5256045E520600DE54B
:100560000B7015F520750B05D2A0800CE50B7008FB
:10057000752001750B05C2A00509E509D394144047
:100580001FE4F525F50975240A7BFF7A0579A1FD9D
:100590007F011209CD7A0579B2E4FD7F021209CDFF
:0105A0002238
:10000E00E52424EC70030200A024F6700302029F84
:10001E0014700302032724ED70030201922428605A
:10002E000302044FE52324F5602514603D2402608D
:10003E000302044F7BFF7A0579C31209C97A057949
:10004E00D4E4FD7F021209CD120B38752414227BE5
:10005E00FF7A0679071209C97A067919E4FD7F023B
:10006E001209CD120B3875243222752F017530010D
:10007E007531017532017533017534011208B67F81
:10008E002C7E011209A5C2A07FD07E071209A5D22F
:10009E00A022E52324F6500A24FC603614604B029D
:1000AE00044F7418252DF8A623052DD3E52D648055
:1000BE0094864003752D06852D0CE4F52EE52EC392
:1000CE00950C500B7426252EF8762A052E80EE02FE
:1000DE0003827418252DF87614152DC3E52D648032
:1000EE0094805003E4F52D02037BE518652F7043D1
:1000FE00E5196530703DE51A65317037E51B6532DF
:10010E007031E51C6533702BE51D65347025C2B268
:10011E007BFF7A06792BFD7F011209CD7A06793B9A
:10012E00E4FD7F021209CDAD2DE4FF120B3C7524C8
:10013E002880340521751F017BFF7A06794B120941
:10014E00C97A06795BE4FD7F021209CDAB217D0AE7
:10015E007F02120A1EAD2DE4FF120B3C752428758A
:10016E002001750B04C2A0E4F52E7426252EF8E4AA
:10017E00F67418252EF8E4F6F52DF50C052EE52E61
:10018E00B406E722E52324F6500A24FC60361460F8
:10019E004B02044F7418252DF8A623052DD3E52DFB
:1001AE00648094864003752D06852D0CE4F52EE5AE
:1001BE002EC3950C500B7426252EF8762A052E800C
:1001CE00EE0203827418252DF87614152DC3E52D35
:1001DE00648094805003E4F52D02037BE518652FAF
:1001EE00704BE51965307045E51A6531703FE51BBA
:1001FE0065327039E51C65337033E51D6534702D3D
:10020E007BFF7A06792BFD7F011209CD7FF47E01EB
:10021E001209A57A06796B1209C97A067919E4FDD5
:10022E007F021209CD120B3875241E8047E4FDFFA4
:10023E00120B3C7BFF7A06797D1209C97A0579D4B7
:10024E00E4FD7F021209CD7FF47E011209A57FF431
:10025E007E011209A57FF47E011209A57FF47E01AD
:10026E001209A51209C57A0579B2E4FD7F021209B9
:10027E00CD75240AE4F52E7426252EF8E4F67418AE
:10028E00252EF8E4F6F52DF50C052EE52EB406E731
:10029E0022E52324F6500A24FC603614604B020437
:1002AE004F7418252DF8A623052DD3E52D648094C3
:1002BE00864003752D06852D0CE4F52EE52EC3958F
:1002CE000C500B7426252EF8762A052E80EE02038E
:1002DE00827418252DF87614152DC3E52D6480949F
:1002EE00805003E4F52D02037BE4F52E7426252EB3
:1002FE00F8E4F6F52DF50C052EE52EB406EE7BFF93
:10030E007A06798E1209C97A0579D4E4FD7F021234
:10031E0009CD120B3875241F22E52324F6500A242A
:10032E00FC603514606202044F7410252DF8A6236C
:10033E00052DD3E52D648094864003752D06852DFD
:10034E000CE4F52EE52EC3950C500B7426252EF8D5
:10035E00762A052E80EE801C7410252DF876141545
:10036E002DC3E52D648094805003E4F52D7426256D
:10037E002DF876207B007A007926E4FD7F021209A3
:10038E00CDAD2D7F01020B3CE51865107075E5199A
:10039E006511706FE51A65127069E51B6513706360
:1003AE00E51C6514705DE51D651570577BFF7A06BB
:1003BE00799FFD7F011209CD7A0679B0E4FD7F02A7
:1003CE001209CDE4F52E7410252EF8E6FF742F25B4
:1003DE002EF8A607052EE52EB406EB1208B67F2CD6
:1003EE007E011209A5C2A07FD07E071209A5D2A058
:1003FE0075240A1209C37A0579B2E4FD7F02120947
:10040E00CD80227525017BFF7A0679C11209C97A42
:10041E000679D2E4FD7F021209CD752428752001DC
:10042E00750B05C2A0E4F52E7426252EF8E4F6749D
:10043E0018252EF8E4F6F52DF50C052EE52EB4064E
:02044E00E722A3
:10095E007F647E001209A5120B79120A451209282E
:10096E0075231475240AE4F50DF50AF522D2B2F5B5
:10097E002DF51FF521F50EF50FF50BF520F525F5E7
:06098E0009D2A0F51722BA
:0E0B890012095E1206E312000E12045080F5EF
:03000B00020A6A7C
:100A6A00C0E0C0D0C28DC28C050DE50DD3943240D2
:100A7A0006750D00750A01D28C758CF8758A2FD00F
:040A8A00D0D0E032B6
:0300000002079163
:0C079100787FE4F6D8FD75813F0207D8A0
:10081D00BB010689828A83E0225002E722BBFE02D9
:09082D00E32289828A83E493220C
:10083600BB010689828A83F0225002F722BBFE01A1
:02084600F3229B
:10084800D083D082F8E4937012740193700DA3A33F
:1008580093F8740193F5828883E473740293686053
:06086800EFA3A3A380DF53
:10079D00020B89E493A3F8E493A34003F68001F2DE
:1007AD0008DFF48029E493A3F85407240CC8C3335D
:1007BD00C4540F4420C8834004F456800146F6DF2C
:1007CD00E4800B0102040810204080900AAFE47E03
:1007DD00019360BCA3FF543F30E509541FFEE49321
:1007ED00A360010ECF54C025E060A840B8E493A3E8
:1007FD00FAE493A3F8E493A3C8C582C8CAC583CA13
:10080D00F0A3C8C582C8CAC583CADFE9DEE780BECA
:010ACD000028
:00000001FF
